{
  "_format": "hh-sol-artifact-1",
  "contractName": "EVoting",
  "sourceName": "contracts/EVoting.sol",
  "abi": [
    {
      "inputs": [],
      "stateMutability": "nonpayable",
      "type": "constructor"
    },
    {
      "anonymous": false,
      "inputs": [
        {
          "indexed": false,
          "internalType": "uint256",
          "name": "id",
          "type": "uint256"
        },
        {
          "indexed": false,
          "internalType": "string",
          "name": "name",
          "type": "string"
        }
      ],
      "name": "CandidateAdded",
      "type": "event"
    },
    {
      "anonymous": false,
      "inputs": [
        {
          "indexed": false,
          "internalType": "address",
          "name": "voter",
          "type": "address"
        },
        {
          "indexed": false,
          "internalType": "uint256",
          "name": "candidateId",
          "type": "uint256"
        }
      ],
      "name": "VoteCasted",
      "type": "event"
    },
    {
      "anonymous": false,
      "inputs": [
        {
          "indexed": false,
          "internalType": "address",
          "name": "voter",
          "type": "address"
        }
      ],
      "name": "VoterRegistered",
      "type": "event"
    },
    {
      "inputs": [
        {
          "internalType": "string",
          "name": "_name",
          "type": "string"
        }
      ],
      "name": "addCandidate",
      "outputs": [],
      "stateMutability": "nonpayable",
      "type": "function"
    },
    {
      "inputs": [],
      "name": "admin",
      "outputs": [
        {
          "internalType": "address",
          "name": "",
          "type": "address"
        }
      ],
      "stateMutability": "view",
      "type": "function"
    },
    {
      "inputs": [
        {
          "internalType": "uint256",
          "name": "",
          "type": "uint256"
        }
      ],
      "name": "candidates",
      "outputs": [
        {
          "internalType": "uint256",
          "name": "id",
          "type": "uint256"
        },
        {
          "internalType": "string",
          "name": "name",
          "type": "string"
        },
        {
          "internalType": "uint256",
          "name": "voteCount",
          "type": "uint256"
        }
      ],
      "stateMutability": "view",
      "type": "function"
    },
    {
      "inputs": [],
      "name": "candidatesCount",
      "outputs": [
        {
          "internalType": "uint256",
          "name": "",
          "type": "uint256"
        }
      ],
      "stateMutability": "view",
      "type": "function"
    },
    {
      "inputs": [
        {
          "internalType": "uint256",
          "name": "_candidateId",
          "type": "uint256"
        }
      ],
      "name": "getCandidate",
      "outputs": [
        {
          "components": [
            {
              "internalType": "uint256",
              "name": "id",
              "type": "uint256"
            },
            {
              "internalType": "string",
              "name": "name",
              "type": "string"
            },
            {
              "internalType": "uint256",
              "name": "voteCount",
              "type": "uint256"
            }
          ],
          "internalType": "struct EVoting.Candidate",
          "name": "",
          "type": "tuple"
        }
      ],
      "stateMutability": "view",
      "type": "function"
    },
    {
      "inputs": [
        {
          "internalType": "address",
          "name": "_voter",
          "type": "address"
        },
        {
          "internalType": "bytes32",
          "name": "_fingerprintHash",
          "type": "bytes32"
        }
      ],
      "name": "registerVoter",
      "outputs": [],
      "stateMutability": "nonpayable",
      "type": "function"
    },
    {
      "inputs": [
        {
          "internalType": "uint256",
          "name": "_candidateId",
          "type": "uint256"
        },
        {
          "internalType": "bytes32",
          "name": "_fingerprintHash",
          "type": "bytes32"
        }
      ],
      "name": "vote",
      "outputs": [],
      "stateMutability": "nonpayable",
      "type": "function"
    },
    {
      "inputs": [
        {
          "internalType": "address",
          "name": "",
          "type": "address"
        }
      ],
      "name": "voters",
      "outputs": [
        {
          "internalType": "bool",
          "name": "isRegistered",
          "type": "bool"
        },
        {
          "internalType": "bool",
          "name": "hasVoted",
          "type": "bool"
        },
        {
          "internalType": "bytes32",
          "name": "fingerprintHash",
          "type": "bytes32"
        }
      ],
      "stateMutability": "view",
      "type": "function"
    }
  ],
  "bytecode": "0x6080604052348015600f57600080fd5b50336000806101000a81548173ffffffffffffffffffffffffffffffffffffffff021916908373ffffffffffffffffffffffffffffffffffffffff1602179055506115208061005f6000396000f3fe608060405234801561001057600080fd5b50600436106100885760003560e01c806368bb8bb61161005b57806368bb8bb614610129578063a3ec138d14610145578063f851a44014610177578063fc6e1d761461019557610088565b80632d35a8a21461008d5780633477ee2e146100ab57806335b8e820146100dd578063462e91ec1461010d575b600080fd5b6100956101b1565b6040516100a2919061098f565b60405180910390f35b6100c560048036038101906100c091906109ea565b6101b7565b6040516100d493929190610aa7565b60405180910390f35b6100f760048036038101906100f291906109ea565b610269565b6040516101049190610b8e565b60405180910390f35b61012760048036038101906101229190610ce5565b61033c565b005b610143600480360381019061013e9190610d64565b610480565b005b61015f600480360381019061015a9190610e02565b6106e7565b60405161016e93929190610e59565b60405180910390f35b61017f61072b565b60405161018c9190610e9f565b60405180910390f35b6101af60048036038101906101aa9190610eba565b61074f565b005b60015481565b60026020528060005260406000206000915090508060000154908060010180546101e090610f29565b80601f016020809104026020016040519081016040528092919081815260200182805461020c90610f29565b80156102595780601f1061022e57610100808354040283529160200191610259565b820191906000526020600020905b81548152906001019060200180831161023c57829003601f168201915b5050505050908060020154905083565b610271610955565b60026000838152602001908152602001600020604051806060016040529081600082015481526020016001820180546102a990610f29565b80601f01602080910402602001604051908101604052809291908181526020018280546102d590610f29565b80156103225780601f106102f757610100808354040283529160200191610322565b820191906000526020600020905b81548152906001019060200180831161030557829003601f168201915b505050505081526020016002820154815250509050919050565b60008054906101000a900473ffffffffffffffffffffffffffffffffffffffff1673ffffffffffffffffffffffffffffffffffffffff163373ffffffffffffffffffffffffffffffffffffffff16146103ca576040517f08c379a00000000000000000000000000000000000000000000000000000000081526004016103c190610fcc565b60405180910390fd5b60405180606001604052806001548152602001828152602001600081525060026000600154815260200190815260200160002060008201518160000155602082015181600101908161041c9190611198565b50604082015181600201559050507fe83b2a43e7e82d975c8a0a6d2f045153c869e111136a34d1889ab7b598e396a36001548260405161045d92919061126a565b60405180910390a160016000815480929190610478906112c9565b919050555050565b600360003373ffffffffffffffffffffffffffffffffffffffff1673ffffffffffffffffffffffffffffffffffffffff16815260200190815260200160002060000160009054906101000a900460ff1661050f576040517f08c379a00000000000000000000000000000000000000000000000000000000081526004016105069061135d565b60405180910390fd5b600360003373ffffffffffffffffffffffffffffffffffffffff1673ffffffffffffffffffffffffffffffffffffffff16815260200190815260200160002060000160019054906101000a900460ff161561059f576040517f08c379a0000000000000000000000000000000000000000000000000000000008152600401610596906113c9565b60405180910390fd5b80600360003373ffffffffffffffffffffffffffffffffffffffff1673ffffffffffffffffffffffffffffffffffffffff1681526020019081526020016000206001015414610623576040517f08c379a000000000000000000000000000000000000000000000000000000000815260040161061a90611435565b60405180910390fd5b60026000838152602001908152602001600020600201600081548092919061064a906112c9565b91905055506001600360003373ffffffffffffffffffffffffffffffffffffffff1673ffffffffffffffffffffffffffffffffffffffff16815260200190815260200160002060000160016101000a81548160ff0219169083151502179055507fd0e6c39f2e086dc49f1524b47725526a56945cd1ff661f37976f1725a1e5698633836040516106db929190611455565b60405180910390a15050565b60036020528060005260406000206000915090508060000160009054906101000a900460ff16908060000160019054906101000a900460ff16908060010154905083565b60008054906101000a900473ffffffffffffffffffffffffffffffffffffffff1681565b60008054906101000a900473ffffffffffffffffffffffffffffffffffffffff1673ffffffffffffffffffffffffffffffffffffffff163373ffffffffffffffffffffffffffffffffffffffff16146107dd576040517f08c379a00000000000000000000000000000000000000000000000000000000081526004016107d490610fcc565b60405180910390fd5b600360008373ffffffffffffffffffffffffffffffffffffffff1673ffffffffffffffffffffffffffffffffffffffff16815260200190815260200160002060000160009054906101000a900460ff161561086d576040517f08c379a0000000000000000000000000000000000000000000000000000000008152600401610864906114ca565b60405180910390fd5b604051806060016040528060011515815260200160001515815260200182815250600360008473ffffffffffffffffffffffffffffffffffffffff1673ffffffffffffffffffffffffffffffffffffffff16815260200190815260200160002060008201518160000160006101000a81548160ff02191690831515021790555060208201518160000160016101000a81548160ff021916908315150217905550604082015181600101559050507fb6be2187d059cc2a55fe29e0e503b566e1e0f8c8780096e185429350acffd3dd826040516109499190610e9f565b60405180910390a15050565b60405180606001604052806000815260200160608152602001600081525090565b6000819050919050565b61098981610976565b82525050565b60006020820190506109a46000830184610980565b92915050565b6000604051905090565b600080fd5b600080fd5b6109c781610976565b81146109d257600080fd5b50565b6000813590506109e4816109be565b92915050565b600060208284031215610a00576109ff6109b4565b5b6000610a0e848285016109d5565b91505092915050565b600081519050919050565b600082825260208201905092915050565b60005b83811015610a51578082015181840152602081019050610a36565b60008484015250505050565b6000601f19601f8301169050919050565b6000610a7982610a17565b610a838185610a22565b9350610a93818560208601610a33565b610a9c81610a5d565b840191505092915050565b6000606082019050610abc6000830186610980565b8181036020830152610ace8185610a6e565b9050610add6040830184610980565b949350505050565b610aee81610976565b82525050565b600082825260208201905092915050565b6000610b1082610a17565b610b1a8185610af4565b9350610b2a818560208601610a33565b610b3381610a5d565b840191505092915050565b6000606083016000830151610b566000860182610ae5565b5060208301518482036020860152610b6e8282610b05565b9150506040830151610b836040860182610ae5565b508091505092915050565b60006020820190508181036000830152610ba88184610b3e565b905092915050565b600080fd5b600080fd5b7f4e487b7100000000000000000000000000000000000000000000000000000000600052604160045260246000fd5b610bf282610a5d565b810181811067ffffffffffffffff82111715610c1157610c10610bba565b5b80604052505050565b6000610c246109aa565b9050610c308282610be9565b919050565b600067ffffffffffffffff821115610c5057610c4f610bba565b5b610c5982610a5d565b9050602081019050919050565b82818337600083830152505050565b6000610c88610c8384610c35565b610c1a565b905082815260208101848484011115610ca457610ca3610bb5565b5b610caf848285610c66565b509392505050565b600082601f830112610ccc57610ccb610bb0565b5b8135610cdc848260208601610c75565b91505092915050565b600060208284031215610cfb57610cfa6109b4565b5b600082013567ffffffffffffffff811115610d1957610d186109b9565b5b610d2584828501610cb7565b91505092915050565b6000819050919050565b610d4181610d2e565b8114610d4c57600080fd5b50565b600081359050610d5e81610d38565b92915050565b60008060408385031215610d7b57610d7a6109b4565b5b6000610d89858286016109d5565b9250506020610d9a85828601610d4f565b9150509250929050565b600073ffffffffffffffffffffffffffffffffffffffff82169050919050565b6000610dcf82610da4565b9050919050565b610ddf81610dc4565b8114610dea57600080fd5b50565b600081359050610dfc81610dd6565b92915050565b600060208284031215610e1857610e176109b4565b5b6000610e2684828501610ded565b91505092915050565b60008115159050919050565b610e4481610e2f565b82525050565b610e5381610d2e565b82525050565b6000606082019050610e6e6000830186610e3b565b610e7b6020830185610e3b565b610e886040830184610e4a565b949350505050565b610e9981610dc4565b82525050565b6000602082019050610eb46000830184610e90565b92915050565b60008060408385031215610ed157610ed06109b4565b5b6000610edf85828601610ded565b9250506020610ef085828601610d4f565b9150509250929050565b7f4e487b7100000000000000000000000000000000000000000000000000000000600052602260045260246000fd5b60006002820490506001821680610f4157607f821691505b602082108103610f5457610f53610efa565b5b50919050565b7f4f6e6c792061646d696e2063616e20706572666f726d2074686973206163746960008201527f6f6e000000000000000000000000000000000000000000000000000000000000602082015250565b6000610fb6602283610a22565b9150610fc182610f5a565b604082019050919050565b60006020820190508181036000830152610fe581610fa9565b9050919050565b60008190508160005260206000209050919050565b60006020601f8301049050919050565b600082821b905092915050565b60006008830261104e7fffffffffffffffffffffffffffffffffffffffffffffffffffffffffffffffff82611011565b6110588683611011565b95508019841693508086168417925050509392505050565b6000819050919050565b600061109561109061108b84610976565b611070565b610976565b9050919050565b6000819050919050565b6110af8361107a565b6110c36110bb8261109c565b84845461101e565b825550505050565b600090565b6110d86110cb565b6110e38184846110a6565b505050565b5b81811015611107576110fc6000826110d0565b6001810190506110e9565b5050565b601f82111561114c5761111d81610fec565b61112684611001565b81016020851015611135578190505b61114961114185611001565b8301826110e8565b50505b505050565b600082821c905092915050565b600061116f60001984600802611151565b1980831691505092915050565b6000611188838361115e565b9150826002028217905092915050565b6111a182610a17565b67ffffffffffffffff8111156111ba576111b9610bba565b5b6111c48254610f29565b6111cf82828561110b565b600060209050601f83116001811461120257600084156111f0578287015190505b6111fa858261117c565b865550611262565b601f19841661121086610fec565b60005b8281101561123857848901518255600182019150602085019450602081019050611213565b868310156112555784890151611251601f89168261115e565b8355505b6001600288020188555050505b505050505050565b600060408201905061127f6000830185610980565b81810360208301526112918184610a6e565b90509392505050565b7f4e487b7100000000000000000000000000000000000000000000000000000000600052601160045260246000fd5b60006112d482610976565b91507fffffffffffffffffffffffffffffffffffffffffffffffffffffffffffffffff82036113065761130561129a565b5b600182019050919050565b7f4e6f742061207265676973746572656420766f74657200000000000000000000600082015250565b6000611347601683610a22565b915061135282611311565b602082019050919050565b600060208201905081810360008301526113768161133a565b9050919050565b7f416c726561647920766f74656400000000000000000000000000000000000000600082015250565b60006113b3600d83610a22565b91506113be8261137d565b602082019050919050565b600060208201905081810360008301526113e2816113a6565b9050919050565b7f496e76616c69642066696e6765727072696e7400000000000000000000000000600082015250565b600061141f601383610a22565b915061142a826113e9565b602082019050919050565b6000602082019050818103600083015261144e81611412565b9050919050565b600060408201905061146a6000830185610e90565b6114776020830184610980565b9392505050565b7f566f74657220616c726561647920726567697374657265640000000000000000600082015250565b60006114b4601883610a22565b91506114bf8261147e565b602082019050919050565b600060208201905081810360008301526114e3816114a7565b905091905056fea2646970667358221220d8c7d0be98251d15b7ee3b80104359d88e2a1eb3f64498496acf289e011134b664736f6c634300081c0033",
  "linkReferences": {},
  "deployedLinkReferences": {}
}