{
  "_format": "hh-sol-artifact-1",
  "contractName": "EVoting",
  "sourceName": "contracts/EVoting.sol",
  "abi": [
    {
      "inputs": [],
      "stateMutability": "nonpayable",
      "type": "constructor"
    },
    {
      "anonymous": false,
      "inputs": [
        {
          "indexed": true,
          "internalType": "address",
          "name": "voter",
          "type": "address"
        },
        {
          "indexed": false,
          "internalType": "uint256",
          "name": "candidateId",
          "type": "uint256"
        }
      ],
      "name": "Voted",
      "type": "event"
    },
    {
      "inputs": [
        {
          "internalType": "string",
          "name": "_name",
          "type": "string"
        }
      ],
      "name": "addCandidate",
      "outputs": [],
      "stateMutability": "nonpayable",
      "type": "function"
    },
    {
      "inputs": [],
      "name": "admin",
      "outputs": [
        {
          "internalType": "address",
          "name": "",
          "type": "address"
        }
      ],
      "stateMutability": "view",
      "type": "function"
    },
    {
      "inputs": [
        {
          "internalType": "uint256",
          "name": "",
          "type": "uint256"
        }
      ],
      "name": "candidates",
      "outputs": [
        {
          "internalType": "uint256",
          "name": "id",
          "type": "uint256"
        },
        {
          "internalType": "string",
          "name": "name",
          "type": "string"
        },
        {
          "internalType": "uint256",
          "name": "voteCount",
          "type": "uint256"
        }
      ],
      "stateMutability": "view",
      "type": "function"
    },
    {
      "inputs": [],
      "name": "candidatesCount",
      "outputs": [
        {
          "internalType": "uint256",
          "name": "",
          "type": "uint256"
        }
      ],
      "stateMutability": "view",
      "type": "function"
    },
    {
      "inputs": [
        {
          "internalType": "uint256",
          "name": "_candidateId",
          "type": "uint256"
        }
      ],
      "name": "getCandidate",
      "outputs": [
        {
          "internalType": "uint256",
          "name": "",
          "type": "uint256"
        },
        {
          "internalType": "string",
          "name": "",
          "type": "string"
        },
        {
          "internalType": "uint256",
          "name": "",
          "type": "uint256"
        }
      ],
      "stateMutability": "view",
      "type": "function"
    },
    {
      "inputs": [
        {
          "internalType": "address",
          "name": "_voter",
          "type": "address"
        }
      ],
      "name": "registerVoter",
      "outputs": [],
      "stateMutability": "nonpayable",
      "type": "function"
    },
    {
      "inputs": [
        {
          "internalType": "uint256",
          "name": "_candidateId",
          "type": "uint256"
        }
      ],
      "name": "vote",
      "outputs": [],
      "stateMutability": "nonpayable",
      "type": "function"
    },
    {
      "inputs": [
        {
          "internalType": "address",
          "name": "",
          "type": "address"
        }
      ],
      "name": "voters",
      "outputs": [
        {
          "internalType": "bool",
          "name": "isRegistered",
          "type": "bool"
        },
        {
          "internalType": "bool",
          "name": "hasVoted",
          "type": "bool"
        },
        {
          "internalType": "uint256",
          "name": "votedCandidateId",
          "type": "uint256"
        }
      ],
      "stateMutability": "view",
      "type": "function"
    }
  ],
  "bytecode": "0x6080604052348015600f57600080fd5b50336000806101000a81548173ffffffffffffffffffffffffffffffffffffffff021916908373ffffffffffffffffffffffffffffffffffffffff1602179055506113368061005f6000396000f3fe608060405234801561001057600080fd5b50600436106100885760003560e01c806338db6dd31161005b57806338db6dd31461012b578063462e91ec14610147578063a3ec138d14610163578063f851a4401461019557610088565b80630121b93f1461008d5780632d35a8a2146100a95780633477ee2e146100c757806335b8e820146100f9575b600080fd5b6100a760048036038101906100a291906109bf565b6101b3565b005b6100b1610442565b6040516100be91906109fb565b60405180910390f35b6100e160048036038101906100dc91906109bf565b610448565b6040516100f093929190610aa6565b60405180910390f35b610113600480360381019061010e91906109bf565b6104fa565b60405161012293929190610aa6565b60405180910390f35b61014560048036038101906101409190610b42565b610635565b005b610161600480360381019061015c9190610ca4565b610804565b005b61017d60048036038101906101789190610b42565b61090d565b60405161018c93929190610d08565b60405180910390f35b61019d610951565b6040516101aa9190610d4e565b60405180910390f35b600260003373ffffffffffffffffffffffffffffffffffffffff1673ffffffffffffffffffffffffffffffffffffffff16815260200190815260200160002060000160009054906101000a900460ff16610242576040517f08c379a000000000000000000000000000000000000000000000000000000000815260040161023990610db5565b60405180910390fd5b600260003373ffffffffffffffffffffffffffffffffffffffff1673ffffffffffffffffffffffffffffffffffffffff16815260200190815260200160002060000160019054906101000a900460ff16156102d2576040517f08c379a00000000000000000000000000000000000000000000000000000000081526004016102c990610e21565b60405180910390fd5b6000811180156102e457506003548111155b610323576040517f08c379a000000000000000000000000000000000000000000000000000000000815260040161031a90610e8d565b60405180910390fd5b6001600260003373ffffffffffffffffffffffffffffffffffffffff1673ffffffffffffffffffffffffffffffffffffffff16815260200190815260200160002060000160016101000a81548160ff02191690831515021790555080600260003373ffffffffffffffffffffffffffffffffffffffff1673ffffffffffffffffffffffffffffffffffffffff168152602001908152602001600020600101819055506001600082815260200190815260200160002060020160008154809291906103ec90610edc565b91905055503373ffffffffffffffffffffffffffffffffffffffff167f4d99b957a2bc29a30ebd96a7be8e68fe50a3c701db28a91436490b7d53870ca48260405161043791906109fb565b60405180910390a250565b60035481565b600160205280600052604060002060009150905080600001549080600101805461047190610f53565b80601f016020809104026020016040519081016040528092919081815260200182805461049d90610f53565b80156104ea5780601f106104bf576101008083540402835291602001916104ea565b820191906000526020600020905b8154815290600101906020018083116104cd57829003601f168201915b5050505050908060020154905083565b600060606000808411801561051157506003548411155b610550576040517f08c379a000000000000000000000000000000000000000000000000000000000815260040161054790610e8d565b60405180910390fd5b6000600160008681526020019081526020016000206040518060600160405290816000820154815260200160018201805461058a90610f53565b80601f01602080910402602001604051908101604052809291908181526020018280546105b690610f53565b80156106035780601f106105d857610100808354040283529160200191610603565b820191906000526020600020905b8154815290600101906020018083116105e657829003601f168201915b505050505081526020016002820154815250509050806000015181602001518260400151935093509350509193909250565b60008054906101000a900473ffffffffffffffffffffffffffffffffffffffff1673ffffffffffffffffffffffffffffffffffffffff163373ffffffffffffffffffffffffffffffffffffffff16146106c3576040517f08c379a00000000000000000000000000000000000000000000000000000000081526004016106ba90610ff6565b60405180910390fd5b600260008273ffffffffffffffffffffffffffffffffffffffff1673ffffffffffffffffffffffffffffffffffffffff16815260200190815260200160002060000160009054906101000a900460ff1615610753576040517f08c379a000000000000000000000000000000000000000000000000000000000815260040161074a90611062565b60405180910390fd5b60405180606001604052806001151581526020016000151581526020016000815250600260008373ffffffffffffffffffffffffffffffffffffffff1673ffffffffffffffffffffffffffffffffffffffff16815260200190815260200160002060008201518160000160006101000a81548160ff02191690831515021790555060208201518160000160016101000a81548160ff0219169083151502179055506040820151816001015590505050565b60008054906101000a900473ffffffffffffffffffffffffffffffffffffffff1673ffffffffffffffffffffffffffffffffffffffff163373ffffffffffffffffffffffffffffffffffffffff1614610892576040517f08c379a000000000000000000000000000000000000000000000000000000000815260040161088990610ff6565b60405180910390fd5b600360008154809291906108a590610edc565b91905055506040518060600160405280600354815260200182815260200160008152506001600060035481526020019081526020016000206000820151816000015560208201518160010190816108fc919061122e565b506040820151816002015590505050565b60026020528060005260406000206000915090508060000160009054906101000a900460ff16908060000160019054906101000a900460ff16908060010154905083565b60008054906101000a900473ffffffffffffffffffffffffffffffffffffffff1681565b6000604051905090565b600080fd5b600080fd5b6000819050919050565b61099c81610989565b81146109a757600080fd5b50565b6000813590506109b981610993565b92915050565b6000602082840312156109d5576109d461097f565b5b60006109e3848285016109aa565b91505092915050565b6109f581610989565b82525050565b6000602082019050610a1060008301846109ec565b92915050565b600081519050919050565b600082825260208201905092915050565b60005b83811015610a50578082015181840152602081019050610a35565b60008484015250505050565b6000601f19601f8301169050919050565b6000610a7882610a16565b610a828185610a21565b9350610a92818560208601610a32565b610a9b81610a5c565b840191505092915050565b6000606082019050610abb60008301866109ec565b8181036020830152610acd8185610a6d565b9050610adc60408301846109ec565b949350505050565b600073ffffffffffffffffffffffffffffffffffffffff82169050919050565b6000610b0f82610ae4565b9050919050565b610b1f81610b04565b8114610b2a57600080fd5b50565b600081359050610b3c81610b16565b92915050565b600060208284031215610b5857610b5761097f565b5b6000610b6684828501610b2d565b91505092915050565b600080fd5b600080fd5b7f4e487b7100000000000000000000000000000000000000000000000000000000600052604160045260246000fd5b610bb182610a5c565b810181811067ffffffffffffffff82111715610bd057610bcf610b79565b5b80604052505050565b6000610be3610975565b9050610bef8282610ba8565b919050565b600067ffffffffffffffff821115610c0f57610c0e610b79565b5b610c1882610a5c565b9050602081019050919050565b82818337600083830152505050565b6000610c47610c4284610bf4565b610bd9565b905082815260208101848484011115610c6357610c62610b74565b5b610c6e848285610c25565b509392505050565b600082601f830112610c8b57610c8a610b6f565b5b8135610c9b848260208601610c34565b91505092915050565b600060208284031215610cba57610cb961097f565b5b600082013567ffffffffffffffff811115610cd857610cd7610984565b5b610ce484828501610c76565b91505092915050565b60008115159050919050565b610d0281610ced565b82525050565b6000606082019050610d1d6000830186610cf9565b610d2a6020830185610cf9565b610d3760408301846109ec565b949350505050565b610d4881610b04565b82525050565b6000602082019050610d636000830184610d3f565b92915050565b7f566f746572206973206e6f742072656769737465726564000000000000000000600082015250565b6000610d9f601783610a21565b9150610daa82610d69565b602082019050919050565b60006020820190508181036000830152610dce81610d92565b9050919050565b7f566f7465722068617320616c726561647920766f746564000000000000000000600082015250565b6000610e0b601783610a21565b9150610e1682610dd5565b602082019050919050565b60006020820190508181036000830152610e3a81610dfe565b9050919050565b7f496e76616c69642063616e646964617465204944000000000000000000000000600082015250565b6000610e77601483610a21565b9150610e8282610e41565b602082019050919050565b60006020820190508181036000830152610ea681610e6a565b9050919050565b7f4e487b7100000000000000000000000000000000000000000000000000000000600052601160045260246000fd5b6000610ee782610989565b91507fffffffffffffffffffffffffffffffffffffffffffffffffffffffffffffffff8203610f1957610f18610ead565b5b600182019050919050565b7f4e487b7100000000000000000000000000000000000000000000000000000000600052602260045260246000fd5b60006002820490506001821680610f6b57607f821691505b602082108103610f7e57610f7d610f24565b5b50919050565b7f4f6e6c792061646d696e2063616e20706572666f726d2074686973206163746960008201527f6f6e000000000000000000000000000000000000000000000000000000000000602082015250565b6000610fe0602283610a21565b9150610feb82610f84565b604082019050919050565b6000602082019050818103600083015261100f81610fd3565b9050919050565b7f566f74657220697320616c726561647920726567697374657265640000000000600082015250565b600061104c601b83610a21565b915061105782611016565b602082019050919050565b6000602082019050818103600083015261107b8161103f565b9050919050565b60008190508160005260206000209050919050565b60006020601f8301049050919050565b600082821b905092915050565b6000600883026110e47fffffffffffffffffffffffffffffffffffffffffffffffffffffffffffffffff826110a7565b6110ee86836110a7565b95508019841693508086168417925050509392505050565b6000819050919050565b600061112b61112661112184610989565b611106565b610989565b9050919050565b6000819050919050565b61114583611110565b61115961115182611132565b8484546110b4565b825550505050565b600090565b61116e611161565b61117981848461113c565b505050565b5b8181101561119d57611192600082611166565b60018101905061117f565b5050565b601f8211156111e2576111b381611082565b6111bc84611097565b810160208510156111cb578190505b6111df6111d785611097565b83018261117e565b50505b505050565b600082821c905092915050565b6000611205600019846008026111e7565b1980831691505092915050565b600061121e83836111f4565b9150826002028217905092915050565b61123782610a16565b67ffffffffffffffff8111156112505761124f610b79565b5b61125a8254610f53565b6112658282856111a1565b600060209050601f8311600181146112985760008415611286578287015190505b6112908582611212565b8655506112f8565b601f1984166112a686611082565b60005b828110156112ce578489015182556001820191506020850194506020810190506112a9565b868310156112eb57848901516112e7601f8916826111f4565b8355505b6001600288020188555050505b50505050505056fea264697066735822122092daac416618aaeb5eb931226b8f445776672890c467c4757cd14636abcd404564736f6c634300081c0033",
  "linkReferences": {},
  "deployedLinkReferences": {}
}