{
  "_format": "hh-sol-artifact-1",
  "contractName": "EVoting",
  "sourceName": "contracts/EVoting.sol",
  "abi": [
    {
      "inputs": [],
      "stateMutability": "nonpayable",
      "type": "constructor"
    },
    {
      "anonymous": false,
      "inputs": [
        {
          "indexed": false,
          "internalType": "string",
          "name": "uuid",
          "type": "string"
        },
        {
          "indexed": false,
          "internalType": "string",
          "name": "candidate",
          "type": "string"
        },
        {
          "indexed": false,
          "internalType": "uint256",
          "name": "totalVotes",
          "type": "uint256"
        }
      ],
      "name": "VoteCasted",
      "type": "event"
    },
    {
      "anonymous": false,
      "inputs": [
        {
          "indexed": false,
          "internalType": "string",
          "name": "voterName",
          "type": "string"
        },
        {
          "indexed": false,
          "internalType": "string",
          "name": "deviceID",
          "type": "string"
        },
        {
          "indexed": false,
          "internalType": "string",
          "name": "uuid",
          "type": "string"
        }
      ],
      "name": "VoterRegistered",
      "type": "event"
    },
    {
      "anonymous": false,
      "inputs": [
        {
          "indexed": false,
          "internalType": "uint256",
          "name": "startTime",
          "type": "uint256"
        },
        {
          "indexed": false,
          "internalType": "uint256",
          "name": "endTime",
          "type": "uint256"
        }
      ],
      "name": "VotingTimeSet",
      "type": "event"
    },
    {
      "inputs": [],
      "name": "admin",
      "outputs": [
        {
          "internalType": "address",
          "name": "",
          "type": "address"
        }
      ],
      "stateMutability": "view",
      "type": "function"
    },
    {
      "inputs": [
        {
          "internalType": "string",
          "name": "",
          "type": "string"
        }
      ],
      "name": "candidates",
      "outputs": [
        {
          "internalType": "string",
          "name": "name",
          "type": "string"
        },
        {
          "internalType": "uint256",
          "name": "voteCount",
          "type": "uint256"
        }
      ],
      "stateMutability": "view",
      "type": "function"
    },
    {
      "inputs": [
        {
          "internalType": "string",
          "name": "uuid",
          "type": "string"
        }
      ],
      "name": "checkIfVoted",
      "outputs": [
        {
          "internalType": "bool",
          "name": "",
          "type": "bool"
        }
      ],
      "stateMutability": "view",
      "type": "function"
    },
    {
      "inputs": [
        {
          "internalType": "string",
          "name": "candidate",
          "type": "string"
        }
      ],
      "name": "getVotes",
      "outputs": [
        {
          "internalType": "uint256",
          "name": "",
          "type": "uint256"
        }
      ],
      "stateMutability": "view",
      "type": "function"
    },
    {
      "inputs": [
        {
          "internalType": "string",
          "name": "",
          "type": "string"
        }
      ],
      "name": "hasVoted",
      "outputs": [
        {
          "internalType": "bool",
          "name": "",
          "type": "bool"
        }
      ],
      "stateMutability": "view",
      "type": "function"
    },
    {
      "inputs": [
        {
          "internalType": "string",
          "name": "uuid",
          "type": "string"
        }
      ],
      "name": "isVoterRegistered",
      "outputs": [
        {
          "internalType": "bool",
          "name": "",
          "type": "bool"
        }
      ],
      "stateMutability": "view",
      "type": "function"
    },
    {
      "inputs": [
        {
          "internalType": "string",
          "name": "voterName",
          "type": "string"
        },
        {
          "internalType": "string",
          "name": "deviceID",
          "type": "string"
        }
      ],
      "name": "registerVoter",
      "outputs": [
        {
          "internalType": "string",
          "name": "",
          "type": "string"
        }
      ],
      "stateMutability": "nonpayable",
      "type": "function"
    },
    {
      "inputs": [
        {
          "internalType": "string",
          "name": "",
          "type": "string"
        }
      ],
      "name": "registeredVoters",
      "outputs": [
        {
          "internalType": "string",
          "name": "uuid",
          "type": "string"
        },
        {
          "internalType": "string",
          "name": "deviceID",
          "type": "string"
        },
        {
          "internalType": "bool",
          "name": "hasVoted",
          "type": "bool"
        }
      ],
      "stateMutability": "view",
      "type": "function"
    },
    {
      "inputs": [
        {
          "internalType": "uint256",
          "name": "_startTime",
          "type": "uint256"
        },
        {
          "internalType": "uint256",
          "name": "_endTime",
          "type": "uint256"
        }
      ],
      "name": "setVotingTime",
      "outputs": [],
      "stateMutability": "nonpayable",
      "type": "function"
    },
    {
      "inputs": [
        {
          "internalType": "string",
          "name": "",
          "type": "string"
        }
      ],
      "name": "usedDeviceIDs",
      "outputs": [
        {
          "internalType": "bool",
          "name": "",
          "type": "bool"
        }
      ],
      "stateMutability": "view",
      "type": "function"
    },
    {
      "inputs": [
        {
          "internalType": "string",
          "name": "uuid",
          "type": "string"
        },
        {
          "internalType": "string",
          "name": "candidate",
          "type": "string"
        }
      ],
      "name": "vote",
      "outputs": [],
      "stateMutability": "nonpayable",
      "type": "function"
    },
    {
      "inputs": [],
      "name": "votingEndTime",
      "outputs": [
        {
          "internalType": "uint256",
          "name": "",
          "type": "uint256"
        }
      ],
      "stateMutability": "view",
      "type": "function"
    },
    {
      "inputs": [],
      "name": "votingStartTime",
      "outputs": [
        {
          "internalType": "uint256",
          "name": "",
          "type": "uint256"
        }
      ],
      "stateMutability": "view",
      "type": "function"
    }
  ],
  "bytecode": "0x6080604052348015600f57600080fd5b50336000806101000a81548173ffffffffffffffffffffffffffffffffffffffff021916908373ffffffffffffffffffffffffffffffffffffffff160217905550611c118061005f6000396000f3fe608060405234801561001057600080fd5b50600436106100cf5760003560e01c80638a4c88471161008c578063c5539cc211610066578063c5539cc21461024e578063ce8738a91461027f578063e8d5940d146102af578063f851a440146102cb576100cf565b80638a4c8847146101d25780639e6adbc414610202578063a78cb83114610232576100cf565b80631ea736e0146100d45780632019a608146100f2578063293544731461011057806339bfeae314610142578063805265e51461017257806382d62e00146101a2575b600080fd5b6100dc6102e9565b6040516100e99190610eaa565b60405180910390f35b6100fa6102ef565b6040516101079190610eaa565b60405180910390f35b61012a6004803603810190610125919061101f565b6102f5565b60405161013993929190611102565b60405180910390f35b61015c6004803603810190610157919061101f565b610452565b6040516101699190611147565b60405180910390f35b61018c6004803603810190610187919061101f565b610488565b6040516101999190610eaa565b60405180910390f35b6101bc60048036038101906101b7919061101f565b6104b3565b6040516101c99190611147565b60405180910390f35b6101ec60048036038101906101e79190611162565b6104e9565b6040516101f991906111da565b60405180910390f35b61021c6004803603810190610217919061101f565b6107ae565b6040516102299190611147565b60405180910390f35b61024c60048036038101906102479190611228565b6107e8565b005b6102686004803603810190610263919061101f565b610903565b604051610276929190611268565b60405180910390f35b6102996004803603810190610294919061101f565b6109c5565b6040516102a69190611147565b60405180910390f35b6102c960048036038101906102c49190611162565b6109fa565b005b6102d3610c36565b6040516102e091906112d9565b60405180910390f35b60025481565b60015481565b60038180516020810182018051848252602083016020850120818352809550505050505060009150905080600001805461032e90611323565b80601f016020809104026020016040519081016040528092919081815260200182805461035a90611323565b80156103a75780601f1061037c576101008083540402835291602001916103a7565b820191906000526020600020905b81548152906001019060200180831161038a57829003601f168201915b5050505050908060010180546103bc90611323565b80601f01602080910402602001604051908101604052809291908181526020018280546103e890611323565b80156104355780601f1061040a57610100808354040283529160200191610435565b820191906000526020600020905b81548152906001019060200180831161041857829003601f168201915b5050505050908060020160009054906101000a900460ff16905083565b6006818051602081018201805184825260208301602085012081835280955050505050506000915054906101000a900460ff1681565b600060058260405161049a9190611390565b9081526020016040518091039020600101549050919050565b6004818051602081018201805184825260208301602085012081835280955050505050506000915054906101000a900460ff1681565b606060008054906101000a900473ffffffffffffffffffffffffffffffffffffffff1673ffffffffffffffffffffffffffffffffffffffff163373ffffffffffffffffffffffffffffffffffffffff1614610579576040517f08c379a000000000000000000000000000000000000000000000000000000000815260040161057090611419565b60405180910390fd5b60008251116105bd576040517f08c379a00000000000000000000000000000000000000000000000000000000081526004016105b490611485565b60405180910390fd5b6004826040516105cd9190611390565b908152602001604051809103902060009054906101000a900460ff1615610629576040517f08c379a000000000000000000000000000000000000000000000000000000000815260040161062090611517565b60405180910390fd5b60006106358484610c5a565b905060006003826040516106499190611390565b9081526020016040518091039020600001805461066590611323565b9050146106a7576040517f08c379a000000000000000000000000000000000000000000000000000000000815260040161069e90611583565b60405180910390fd5b6040518060600160405280828152602001848152602001600015158152506003826040516106d59190611390565b908152602001604051809103902060008201518160000190816106f8919061174f565b50602082015181600101908161070e919061174f565b5060408201518160020160006101000a81548160ff02191690831515021790555090505060016004846040516107449190611390565b908152602001604051809103902060006101000a81548160ff0219169083151502179055507f990a80f13dbddcba3f0752663fd8b60f7ecf8242100bbbd965f66479c7df9a3a84848360405161079c93929190611821565b60405180910390a18091505092915050565b6000806003836040516107c19190611390565b908152602001604051809103902060000180546107dd90611323565b905014159050919050565b60008054906101000a900473ffffffffffffffffffffffffffffffffffffffff1673ffffffffffffffffffffffffffffffffffffffff163373ffffffffffffffffffffffffffffffffffffffff1614610876576040517f08c379a000000000000000000000000000000000000000000000000000000000815260040161086d90611419565b60405180910390fd5b8082106108b8576040517f08c379a00000000000000000000000000000000000000000000000000000000081526004016108af906118df565b60405180910390fd5b81600181905550806002819055507f40c66ce823c3067a3fe8a7b7a31c95588aaf37f26b6932ec0224ac76d3f1318d82826040516108f79291906118ff565b60405180910390a15050565b60058180516020810182018051848252602083016020850120818352809550505050505060009150905080600001805461093c90611323565b80601f016020809104026020016040519081016040528092919081815260200182805461096890611323565b80156109b55780601f1061098a576101008083540402835291602001916109b5565b820191906000526020600020905b81548152906001019060200180831161099857829003601f168201915b5050505050908060010154905082565b60006006826040516109d79190611390565b908152602001604051809103902060009054906101000a900460ff169050919050565b6001544210158015610a0e57506002544211155b610a4d576040517f08c379a0000000000000000000000000000000000000000000000000000000008152600401610a4490611974565b60405180910390fd5b6000600383604051610a5f9190611390565b90815260200160405180910390206000018054610a7b90611323565b905003610abd576040517f08c379a0000000000000000000000000000000000000000000000000000000008152600401610ab4906119e0565b60405180910390fd5b600382604051610acd9190611390565b908152602001604051809103902060020160009054906101000a900460ff1615610b2c576040517f08c379a0000000000000000000000000000000000000000000000000000000008152600401610b2390611a4c565b60405180910390fd5b6001600383604051610b3e9190611390565b908152602001604051809103902060020160006101000a81548160ff0219169083151502179055506001600683604051610b789190611390565b908152602001604051809103902060006101000a81548160ff0219169083151502179055506001600582604051610baf9190611390565b90815260200160405180910390206001016000828254610bcf9190611a9b565b925050819055507fe29479d24a30e935ca904025911c08ddffa62ea2d582885a533cc9708fda66c48282600584604051610c099190611390565b908152602001604051809103902060010154604051610c2a93929190611acf565b60405180910390a15050565b60008054906101000a900473ffffffffffffffffffffffffffffffffffffffff1681565b6060610c8f838342604051602001610c7493929190611b35565b60405160208183030381529060405280519060200120610c97565b905092915050565b606060006040518060400160405280601081526020017f303132333435363738396162636465660000000000000000000000000000000081525090506000604067ffffffffffffffff811115610cf057610cef610ef4565b5b6040519080825280601f01601f191660200182016040528015610d225781602001600182028036833780820191505090505b50905060005b6020811015610e8657826004868360208110610d4757610d46611b6a565b5b1a60f81b7effffffffffffffffffffffffffffffffffffffffffffffffffffffffffffff1916901c60f81c60ff1681518110610d8657610d85611b6a565b5b602001015160f81c60f81b82600283610d9f9190611b99565b81518110610db057610daf611b6a565b5b60200101907effffffffffffffffffffffffffffffffffffffffffffffffffffffffffffff1916908160001a90535082600f60f81b868360208110610df857610df7611b6a565b5b1a60f81b1660f81c60ff1681518110610e1457610e13611b6a565b5b602001015160f81c60f81b82600283610e2d9190611b99565b6001610e399190611a9b565b81518110610e4a57610e49611b6a565b5b60200101907effffffffffffffffffffffffffffffffffffffffffffffffffffffffffffff1916908160001a9053508080600101915050610d28565b508092505050919050565b6000819050919050565b610ea481610e91565b82525050565b6000602082019050610ebf6000830184610e9b565b92915050565b6000604051905090565b600080fd5b600080fd5b600080fd5b600080fd5b6000601f19601f8301169050919050565b7f4e487b7100000000000000000000000000000000000000000000000000000000600052604160045260246000fd5b610f2c82610ee3565b810181811067ffffffffffffffff82111715610f4b57610f4a610ef4565b5b80604052505050565b6000610f5e610ec5565b9050610f6a8282610f23565b919050565b600067ffffffffffffffff821115610f8a57610f89610ef4565b5b610f9382610ee3565b9050602081019050919050565b82818337600083830152505050565b6000610fc2610fbd84610f6f565b610f54565b905082815260208101848484011115610fde57610fdd610ede565b5b610fe9848285610fa0565b509392505050565b600082601f83011261100657611005610ed9565b5b8135611016848260208601610faf565b91505092915050565b60006020828403121561103557611034610ecf565b5b600082013567ffffffffffffffff81111561105357611052610ed4565b5b61105f84828501610ff1565b91505092915050565b600081519050919050565b600082825260208201905092915050565b60005b838110156110a2578082015181840152602081019050611087565b60008484015250505050565b60006110b982611068565b6110c38185611073565b93506110d3818560208601611084565b6110dc81610ee3565b840191505092915050565b60008115159050919050565b6110fc816110e7565b82525050565b6000606082019050818103600083015261111c81866110ae565b9050818103602083015261113081856110ae565b905061113f60408301846110f3565b949350505050565b600060208201905061115c60008301846110f3565b92915050565b6000806040838503121561117957611178610ecf565b5b600083013567ffffffffffffffff81111561119757611196610ed4565b5b6111a385828601610ff1565b925050602083013567ffffffffffffffff8111156111c4576111c3610ed4565b5b6111d085828601610ff1565b9150509250929050565b600060208201905081810360008301526111f481846110ae565b905092915050565b61120581610e91565b811461121057600080fd5b50565b600081359050611222816111fc565b92915050565b6000806040838503121561123f5761123e610ecf565b5b600061124d85828601611213565b925050602061125e85828601611213565b9150509250929050565b6000604082019050818103600083015261128281856110ae565b90506112916020830184610e9b565b9392505050565b600073ffffffffffffffffffffffffffffffffffffffff82169050919050565b60006112c382611298565b9050919050565b6112d3816112b8565b82525050565b60006020820190506112ee60008301846112ca565b92915050565b7f4e487b7100000000000000000000000000000000000000000000000000000000600052602260045260246000fd5b6000600282049050600182168061133b57607f821691505b60208210810361134e5761134d6112f4565b5b50919050565b600081905092915050565b600061136a82611068565b6113748185611354565b9350611384818560208601611084565b80840191505092915050565b600061139c828461135f565b915081905092915050565b7f4f6e6c792061646d696e2063616e20706572666f726d2074686973206163746960008201527f6f6e000000000000000000000000000000000000000000000000000000000000602082015250565b6000611403602283611073565b915061140e826113a7565b604082019050919050565b60006020820190508181036000830152611432816113f6565b9050919050565b7f4465766963652049442069732072657175697265640000000000000000000000600082015250565b600061146f601583611073565b915061147a82611439565b602082019050919050565b6000602082019050818103600083015261149e81611462565b9050919050565b7f44657669636520616c7265616479207573656420666f7220726567697374726160008201527f74696f6e00000000000000000000000000000000000000000000000000000000602082015250565b6000611501602483611073565b915061150c826114a5565b604082019050919050565b60006020820190508181036000830152611530816114f4565b9050919050565b7f566f74657220616c726561647920726567697374657265640000000000000000600082015250565b600061156d601883611073565b915061157882611537565b602082019050919050565b6000602082019050818103600083015261159c81611560565b9050919050565b60008190508160005260206000209050919050565b60006020601f8301049050919050565b600082821b905092915050565b6000600883026116057fffffffffffffffffffffffffffffffffffffffffffffffffffffffffffffffff826115c8565b61160f86836115c8565b95508019841693508086168417925050509392505050565b6000819050919050565b600061164c61164761164284610e91565b611627565b610e91565b9050919050565b6000819050919050565b61166683611631565b61167a61167282611653565b8484546115d5565b825550505050565b600090565b61168f611682565b61169a81848461165d565b505050565b5b818110156116be576116b3600082611687565b6001810190506116a0565b5050565b601f821115611703576116d4816115a3565b6116dd846115b8565b810160208510156116ec578190505b6117006116f8856115b8565b83018261169f565b50505b505050565b600082821c905092915050565b600061172660001984600802611708565b1980831691505092915050565b600061173f8383611715565b9150826002028217905092915050565b61175882611068565b67ffffffffffffffff81111561177157611770610ef4565b5b61177b8254611323565b6117868282856116c2565b600060209050601f8311600181146117b957600084156117a7578287015190505b6117b18582611733565b865550611819565b601f1984166117c7866115a3565b60005b828110156117ef578489015182556001820191506020850194506020810190506117ca565b8683101561180c5784890151611808601f891682611715565b8355505b6001600288020188555050505b505050505050565b6000606082019050818103600083015261183b81866110ae565b9050818103602083015261184f81856110ae565b9050818103604083015261186381846110ae565b9050949350505050565b7f53746172742074696d65206d757374206265206265666f726520656e6420746960008201527f6d65000000000000000000000000000000000000000000000000000000000000602082015250565b60006118c9602283611073565b91506118d48261186d565b604082019050919050565b600060208201905081810360008301526118f8816118bc565b9050919050565b60006040820190506119146000830185610e9b565b6119216020830184610e9b565b9392505050565b7f566f74696e67206973206e6f7420616374697665000000000000000000000000600082015250565b600061195e601483611073565b915061196982611928565b602082019050919050565b6000602082019050818103600083015261198d81611951565b9050919050565b7f566f746572206e6f742072656769737465726564000000000000000000000000600082015250565b60006119ca601483611073565b91506119d582611994565b602082019050919050565b600060208201905081810360008301526119f9816119bd565b9050919050565b7f566f7465722068617320616c726561647920766f746564000000000000000000600082015250565b6000611a36601783611073565b9150611a4182611a00565b602082019050919050565b60006020820190508181036000830152611a6581611a29565b9050919050565b7f4e487b7100000000000000000000000000000000000000000000000000000000600052601160045260246000fd5b6000611aa682610e91565b9150611ab183610e91565b9250828201905080821115611ac957611ac8611a6c565b5b92915050565b60006060820190508181036000830152611ae981866110ae565b90508181036020830152611afd81856110ae565b9050611b0c6040830184610e9b565b949350505050565b6000819050919050565b611b2f611b2a82610e91565b611b14565b82525050565b6000611b41828661135f565b9150611b4d828561135f565b9150611b598284611b1e565b602082019150819050949350505050565b7f4e487b7100000000000000000000000000000000000000000000000000000000600052603260045260246000fd5b6000611ba482610e91565b9150611baf83610e91565b9250828202611bbd81610e91565b91508282048414831517611bd457611bd3611a6c565b5b509291505056fea2646970667358221220f53768429b017bb737fa4e53c258f832f3be6a2f072bb4c3636fa49d97a7b14864736f6c634300081c0033",
  "linkReferences": {},
  "deployedLinkReferences": {}
}