{
  "_format": "hh-sol-artifact-1",
  "contractName": "EVoting",
  "sourceName": "contracts/EVoting.sol",
  "abi": [
    {
      "inputs": [],
      "stateMutability": "nonpayable",
      "type": "constructor"
    },
    {
      "anonymous": false,
      "inputs": [
        {
          "indexed": false,
          "internalType": "string",
          "name": "uuid",
          "type": "string"
        },
        {
          "indexed": false,
          "internalType": "string",
          "name": "candidate",
          "type": "string"
        }
      ],
      "name": "VoteCasted",
      "type": "event"
    },
    {
      "anonymous": false,
      "inputs": [
        {
          "indexed": false,
          "internalType": "uint256",
          "name": "startTime",
          "type": "uint256"
        },
        {
          "indexed": false,
          "internalType": "uint256",
          "name": "endTime",
          "type": "uint256"
        }
      ],
      "name": "VotingTimeSet",
      "type": "event"
    },
    {
      "inputs": [],
      "name": "admin",
      "outputs": [
        {
          "internalType": "address",
          "name": "",
          "type": "address"
        }
      ],
      "stateMutability": "view",
      "type": "function"
    },
    {
      "inputs": [
        {
          "internalType": "string",
          "name": "uuid",
          "type": "string"
        }
      ],
      "name": "checkIfVoted",
      "outputs": [
        {
          "internalType": "bool",
          "name": "",
          "type": "bool"
        }
      ],
      "stateMutability": "view",
      "type": "function"
    },
    {
      "inputs": [],
      "name": "getVotingTimes",
      "outputs": [
        {
          "internalType": "uint256",
          "name": "",
          "type": "uint256"
        },
        {
          "internalType": "uint256",
          "name": "",
          "type": "uint256"
        }
      ],
      "stateMutability": "view",
      "type": "function"
    },
    {
      "inputs": [
        {
          "internalType": "string",
          "name": "",
          "type": "string"
        }
      ],
      "name": "hasVoted",
      "outputs": [
        {
          "internalType": "bool",
          "name": "",
          "type": "bool"
        }
      ],
      "stateMutability": "view",
      "type": "function"
    },
    {
      "inputs": [
        {
          "internalType": "uint256",
          "name": "_startTime",
          "type": "uint256"
        },
        {
          "internalType": "uint256",
          "name": "_endTime",
          "type": "uint256"
        }
      ],
      "name": "setVotingTime",
      "outputs": [],
      "stateMutability": "nonpayable",
      "type": "function"
    },
    {
      "inputs": [
        {
          "internalType": "string",
          "name": "uuid",
          "type": "string"
        },
        {
          "internalType": "string",
          "name": "candidate",
          "type": "string"
        }
      ],
      "name": "vote",
      "outputs": [],
      "stateMutability": "nonpayable",
      "type": "function"
    },
    {
      "inputs": [],
      "name": "votingEndTime",
      "outputs": [
        {
          "internalType": "uint256",
          "name": "",
          "type": "uint256"
        }
      ],
      "stateMutability": "view",
      "type": "function"
    },
    {
      "inputs": [],
      "name": "votingStartTime",
      "outputs": [
        {
          "internalType": "uint256",
          "name": "",
          "type": "uint256"
        }
      ],
      "stateMutability": "view",
      "type": "function"
    }
  ],
  "bytecode": "0x6080604052348015600f57600080fd5b50336000806101000a81548173ffffffffffffffffffffffffffffffffffffffff021916908373ffffffffffffffffffffffffffffffffffffffff160217905550610b498061005f6000396000f3fe608060405234801561001057600080fd5b50600436106100885760003560e01c8063a78cb8311161005b578063a78cb83114610118578063ce8738a914610134578063e8d5940d14610164578063f851a4401461018057610088565b80631ea736e01461008d5780632019a608146100ab57806339bfeae3146100c95780634ab76402146100f9575b600080fd5b61009561019e565b6040516100a291906104b1565b60405180910390f35b6100b36101a4565b6040516100c091906104b1565b60405180910390f35b6100e360048036038101906100de9190610626565b6101aa565b6040516100f0919061068a565b60405180910390f35b6101016101e0565b60405161010f9291906106a5565b60405180910390f35b610132600480360381019061012d91906106fa565b6101f1565b005b61014e60048036038101906101499190610626565b61030c565b60405161015b919061068a565b60405180910390f35b61017e6004803603810190610179919061073a565b610341565b005b610188610474565b60405161019591906107f3565b60405180910390f35b60025481565b60015481565b6003818051602081018201805184825260208301602085012081835280955050505050506000915054906101000a900460ff1681565b600080600154600254915091509091565b60008054906101000a900473ffffffffffffffffffffffffffffffffffffffff1673ffffffffffffffffffffffffffffffffffffffff163373ffffffffffffffffffffffffffffffffffffffff161461027f576040517f08c379a000000000000000000000000000000000000000000000000000000000815260040161027690610891565b60405180910390fd5b8082106102c1576040517f08c379a00000000000000000000000000000000000000000000000000000000081526004016102b890610923565b60405180910390fd5b81600181905550806002819055507f40c66ce823c3067a3fe8a7b7a31c95588aaf37f26b6932ec0224ac76d3f1318d82826040516103009291906106a5565b60405180910390a15050565b600060038260405161031e91906109b4565b908152602001604051809103902060009054906101000a900460ff169050919050565b600154421015801561035557506002544211155b610394576040517f08c379a000000000000000000000000000000000000000000000000000000000815260040161038b90610a17565b60405180910390fd5b6003826040516103a491906109b4565b908152602001604051809103902060009054906101000a900460ff1615610400576040517f08c379a00000000000000000000000000000000000000000000000000000000081526004016103f790610a83565b60405180910390fd5b600160038360405161041291906109b4565b908152602001604051809103902060006101000a81548160ff0219169083151502179055507f791f7d5f0b0d6e798f239ccca607156ff12f293d6709379301dc1a27e52061818282604051610468929190610adc565b60405180910390a15050565b60008054906101000a900473ffffffffffffffffffffffffffffffffffffffff1681565b6000819050919050565b6104ab81610498565b82525050565b60006020820190506104c660008301846104a2565b92915050565b6000604051905090565b600080fd5b600080fd5b600080fd5b600080fd5b6000601f19601f8301169050919050565b7f4e487b7100000000000000000000000000000000000000000000000000000000600052604160045260246000fd5b610533826104ea565b810181811067ffffffffffffffff82111715610552576105516104fb565b5b80604052505050565b60006105656104cc565b9050610571828261052a565b919050565b600067ffffffffffffffff821115610591576105906104fb565b5b61059a826104ea565b9050602081019050919050565b82818337600083830152505050565b60006105c96105c484610576565b61055b565b9050828152602081018484840111156105e5576105e46104e5565b5b6105f08482856105a7565b509392505050565b600082601f83011261060d5761060c6104e0565b5b813561061d8482602086016105b6565b91505092915050565b60006020828403121561063c5761063b6104d6565b5b600082013567ffffffffffffffff81111561065a576106596104db565b5b610666848285016105f8565b91505092915050565b60008115159050919050565b6106848161066f565b82525050565b600060208201905061069f600083018461067b565b92915050565b60006040820190506106ba60008301856104a2565b6106c760208301846104a2565b9392505050565b6106d781610498565b81146106e257600080fd5b50565b6000813590506106f4816106ce565b92915050565b60008060408385031215610711576107106104d6565b5b600061071f858286016106e5565b9250506020610730858286016106e5565b9150509250929050565b60008060408385031215610751576107506104d6565b5b600083013567ffffffffffffffff81111561076f5761076e6104db565b5b61077b858286016105f8565b925050602083013567ffffffffffffffff81111561079c5761079b6104db565b5b6107a8858286016105f8565b9150509250929050565b600073ffffffffffffffffffffffffffffffffffffffff82169050919050565b60006107dd826107b2565b9050919050565b6107ed816107d2565b82525050565b600060208201905061080860008301846107e4565b92915050565b600082825260208201905092915050565b7f4f6e6c792061646d696e2063616e20706572666f726d2074686973206163746960008201527f6f6e000000000000000000000000000000000000000000000000000000000000602082015250565b600061087b60228361080e565b91506108868261081f565b604082019050919050565b600060208201905081810360008301526108aa8161086e565b9050919050565b7f53746172742074696d65206d757374206265206265666f726520656e6420746960008201527f6d65000000000000000000000000000000000000000000000000000000000000602082015250565b600061090d60228361080e565b9150610918826108b1565b604082019050919050565b6000602082019050818103600083015261093c81610900565b9050919050565b600081519050919050565b600081905092915050565b60005b8381101561097757808201518184015260208101905061095c565b60008484015250505050565b600061098e82610943565b610998818561094e565b93506109a8818560208601610959565b80840191505092915050565b60006109c08284610983565b915081905092915050565b7f566f74696e67206973206e6f7420616374697665000000000000000000000000600082015250565b6000610a0160148361080e565b9150610a0c826109cb565b602082019050919050565b60006020820190508181036000830152610a30816109f4565b9050919050565b7f566f7465722068617320616c726561647920766f746564000000000000000000600082015250565b6000610a6d60178361080e565b9150610a7882610a37565b602082019050919050565b60006020820190508181036000830152610a9c81610a60565b9050919050565b6000610aae82610943565b610ab8818561080e565b9350610ac8818560208601610959565b610ad1816104ea565b840191505092915050565b60006040820190508181036000830152610af68185610aa3565b90508181036020830152610b0a8184610aa3565b9050939250505056fea26469706673582212204e01ce7ac9d75c6a3b02d040437f7aff9e66d768a02ea83b98cf61817569c18064736f6c634300081c0033",
  "linkReferences": {},
  "deployedLinkReferences": {}
}